{
  "contractName": "CardLauncher",
  "abi": [
    {
      "constant": false,
      "inputs": [
        {
          "name": "_cardName",
          "type": "bytes32"
        },
        {
          "name": "_cardSymbol",
          "type": "bytes32"
        },
        {
          "name": "_cardDecimals",
          "type": "uint256"
        },
        {
          "name": "_cardCount",
          "type": "uint256"
        }
      ],
      "name": "createCards",
      "outputs": [
        {
          "name": "",
          "type": "uint256"
        }
      ],
      "payable": false,
      "stateMutability": "nonpayable",
      "type": "function"
    },
    {
      "constant": false,
      "inputs": [],
      "name": "getCardsCount",
      "outputs": [
        {
          "name": "",
          "type": "uint256"
        }
      ],
      "payable": false,
      "stateMutability": "nonpayable",
      "type": "function"
    },
    {
      "constant": true,
      "inputs": [],
      "name": "weiRaised",
      "outputs": [
        {
          "name": "",
          "type": "uint256"
        }
      ],
      "payable": false,
      "stateMutability": "view",
      "type": "function"
    },
    {
      "constant": true,
      "inputs": [],
      "name": "BaseCardCounter",
      "outputs": [
        {
          "name": "",
          "type": "uint256"
        }
      ],
      "payable": false,
      "stateMutability": "view",
      "type": "function"
    },
    {
      "constant": true,
      "inputs": [],
      "name": "wallet",
      "outputs": [
        {
          "name": "",
          "type": "address"
        }
      ],
      "payable": false,
      "stateMutability": "view",
      "type": "function"
    },
    {
      "constant": false,
      "inputs": [],
      "name": "getCards",
      "outputs": [
        {
          "name": "",
          "type": "address[]"
        }
      ],
      "payable": false,
      "stateMutability": "nonpayable",
      "type": "function"
    },
    {
      "constant": true,
      "inputs": [
        {
          "name": "",
          "type": "uint256"
        }
      ],
      "name": "Cards",
      "outputs": [
        {
          "name": "",
          "type": "address"
        }
      ],
      "payable": false,
      "stateMutability": "view",
      "type": "function"
    },
    {
      "inputs": [
        {
          "name": "_wallet",
          "type": "address"
        }
      ],
      "payable": false,
      "stateMutability": "nonpayable",
      "type": "constructor"
    }
  ],
  "bytecode": "0x60606040526000600155341561001457600080fd5b604051602080611cd28339810160405280805190602001909190505060008173ffffffffffffffffffffffffffffffffffffffff161415151561005657600080fd5b80600260006101000a81548173ffffffffffffffffffffffffffffffffffffffff021916908373ffffffffffffffffffffffffffffffffffffffff16021790555050611c2b806100a76000396000f300606060405260043610610083576000357c0100000000000000000000000000000000000000000000000000000000900463ffffffff168063122cdf7314610088578063221b5fad146100e25780634042b66f1461010b578063471ab58e14610134578063521eb2731461015d578063b0df9e53146101b2578063d77678ef1461021c575b600080fd5b341561009357600080fd5b6100cc6004808035600019169060200190919080356000191690602001909190803590602001909190803590602001909190505061027f565b6040518082815260200191505060405180910390f35b34156100ed57600080fd5b6100f5610491565b6040518082815260200191505060405180910390f35b341561011657600080fd5b61011e61049d565b6040518082815260200191505060405180910390f35b341561013f57600080fd5b6101476104a3565b6040518082815260200191505060405180910390f35b341561016857600080fd5b6101706104a9565b604051808273ffffffffffffffffffffffffffffffffffffffff1673ffffffffffffffffffffffffffffffffffffffff16815260200191505060405180910390f35b34156101bd57600080fd5b6101c56104cf565b6040518080602001828103825283818151815260200191508051906020019060200280838360005b838110156102085780820151818401526020810190506101ed565b505050509050019250505060405180910390f35b341561022757600080fd5b61023d6004808035906020019091905050610563565b604051808273ffffffffffffffffffffffffffffffffffffffff1673ffffffffffffffffffffffffffffffffffffffff16815260200191505060405180910390f35b600080858585600260009054906101000a900473ffffffffffffffffffffffffffffffffffffffff166102b06105a2565b80856000191660001916815260200184600019166000191681526020018381526020018273ffffffffffffffffffffffffffffffffffffffff1673ffffffffffffffffffffffffffffffffffffffff168152602001945050505050604051809103906000f080151561032157600080fd5b90506001600081548092919060010191905055506000805480600101828161034991906105b2565b9160005260206000209001600083909190916101000a81548173ffffffffffffffffffffffffffffffffffffffff021916908373ffffffffffffffffffffffffffffffffffffffff160217905550508073ffffffffffffffffffffffffffffffffffffffff166340c10f19600260009054906101000a900473ffffffffffffffffffffffffffffffffffffffff16856000604051602001526040518363ffffffff167c0100000000000000000000000000000000000000000000000000000000028152600401808373ffffffffffffffffffffffffffffffffffffffff1673ffffffffffffffffffffffffffffffffffffffff16815260200182815260200192505050602060405180830381600087803b151561046557600080fd5b6102c65a03f1151561047657600080fd5b50505060405180519050506001805403915050949350505050565b60008080549050905090565b60035481565b60015481565b600260009054906101000a900473ffffffffffffffffffffffffffffffffffffffff1681565b6104d76105de565b600080548060200260200160405190810160405280929190818152602001828054801561055957602002820191906000526020600020905b8160009054906101000a900473ffffffffffffffffffffffffffffffffffffffff1673ffffffffffffffffffffffffffffffffffffffff168152602001906001019080831161050f575b5050505050905090565b60008181548110151561057257fe5b90600052602060002090016000915054906101000a900473ffffffffffffffffffffffffffffffffffffffff1681565b6040516115e88061061883390190565b8154818355818115116105d9578183600052602060002091820191016105d891906105f2565b5b505050565b602060405190810160405280600081525090565b61061491905b808211156106105760008160009055506001016105f8565b5090565b90560060606040526000600360146101000a81548160ff021916908315150217905550341561002a57600080fd5b6040516080806115e88339810160405280805190602001909190805190602001909190805190602001909190805190602001909190505033600360006101000a81548173ffffffffffffffffffffffffffffffffffffffff021916908373ffffffffffffffffffffffffffffffffffffffff160217905550836004816000191690555082600581600019169055508160068190555050505050611516806100d26000396000f3006060604052600436106100e6576000357c0100000000000000000000000000000000000000000000000000000000900463ffffffff16806305d2035b146100eb57806306fdde0314610118578063095ea7b31461014957806318160ddd146101a357806323b872dd146101cc578063313ce5671461024557806340c10f191461026e57806366188463146102c857806370a08231146103225780637d64bcb41461036f5780638da5cb5b1461039c57806395d89b41146103f1578063a9059cbb14610422578063d73dd6231461047c578063dd62ed3e146104d6578063f2fde38b14610542575b600080fd5b34156100f657600080fd5b6100fe61057b565b604051808215151515815260200191505060405180910390f35b341561012357600080fd5b61012b61058e565b60405180826000191660001916815260200191505060405180910390f35b341561015457600080fd5b610189600480803573ffffffffffffffffffffffffffffffffffffffff16906020019091908035906020019091905050610594565b604051808215151515815260200191505060405180910390f35b34156101ae57600080fd5b6101b6610686565b6040518082815260200191505060405180910390f35b34156101d757600080fd5b61022b600480803573ffffffffffffffffffffffffffffffffffffffff1690602001909190803573ffffffffffffffffffffffffffffffffffffffff1690602001909190803590602001909190505061068c565b604051808215151515815260200191505060405180910390f35b341561025057600080fd5b610258610978565b6040518082815260200191505060405180910390f35b341561027957600080fd5b6102ae600480803573ffffffffffffffffffffffffffffffffffffffff1690602001909190803590602001909190505061097e565b604051808215151515815260200191505060405180910390f35b34156102d357600080fd5b610308600480803573ffffffffffffffffffffffffffffffffffffffff16906020019091908035906020019091905050610b50565b604051808215151515815260200191505060405180910390f35b341561032d57600080fd5b610359600480803573ffffffffffffffffffffffffffffffffffffffff16906020019091905050610de1565b6040518082815260200191505060405180910390f35b341561037a57600080fd5b610382610e2a565b604051808215151515815260200191505060405180910390f35b34156103a757600080fd5b6103af610ed6565b604051808273ffffffffffffffffffffffffffffffffffffffff1673ffffffffffffffffffffffffffffffffffffffff16815260200191505060405180910390f35b34156103fc57600080fd5b610404610efc565b60405180826000191660001916815260200191505060405180910390f35b341561042d57600080fd5b610462600480803573ffffffffffffffffffffffffffffffffffffffff16906020019091908035906020019091905050610f02565b604051808215151515815260200191505060405180910390f35b341561048757600080fd5b6104bc600480803573ffffffffffffffffffffffffffffffffffffffff169060200190919080359060200190919050506110d8565b604051808215151515815260200191505060405180910390f35b34156104e157600080fd5b61052c600480803573ffffffffffffffffffffffffffffffffffffffff1690602001909190803573ffffffffffffffffffffffffffffffffffffffff169060200190919050506112d4565b6040518082815260200191505060405180910390f35b341561054d57600080fd5b610579600480803573ffffffffffffffffffffffffffffffffffffffff1690602001909190505061135b565b005b600360149054906101000a900460ff1681565b60045481565b600081600260003373ffffffffffffffffffffffffffffffffffffffff1673ffffffffffffffffffffffffffffffffffffffff16815260200190815260200160002060008573ffffffffffffffffffffffffffffffffffffffff1673ffffffffffffffffffffffffffffffffffffffff168152602001908152602001600020819055508273ffffffffffffffffffffffffffffffffffffffff163373ffffffffffffffffffffffffffffffffffffffff167f8c5be1e5ebec7d5bd14f71427d1e84f3dd0314c0f7b2291e5b200ac8c7c3b925846040518082815260200191505060405180910390a36001905092915050565b60005481565b600080600073ffffffffffffffffffffffffffffffffffffffff168473ffffffffffffffffffffffffffffffffffffffff16141515156106cb57600080fd5b600260008673ffffffffffffffffffffffffffffffffffffffff1673ffffffffffffffffffffffffffffffffffffffff16815260200190815260200160002060003373ffffffffffffffffffffffffffffffffffffffff1673ffffffffffffffffffffffffffffffffffffffff16815260200190815260200160002054905061079c83600160008873ffffffffffffffffffffffffffffffffffffffff1673ffffffffffffffffffffffffffffffffffffffff168152602001908152602001600020546114b390919063ffffffff16565b600160008773ffffffffffffffffffffffffffffffffffffffff1673ffffffffffffffffffffffffffffffffffffffff1681526020019081526020016000208190555061083183600160008773ffffffffffffffffffffffffffffffffffffffff1673ffffffffffffffffffffffffffffffffffffffff168152602001908152602001600020546114cc90919063ffffffff16565b600160008673ffffffffffffffffffffffffffffffffffffffff1673ffffffffffffffffffffffffffffffffffffffff1681526020019081526020016000208190555061088783826114b390919063ffffffff16565b600260008773ffffffffffffffffffffffffffffffffffffffff1673ffffffffffffffffffffffffffffffffffffffff16815260200190815260200160002060003373ffffffffffffffffffffffffffffffffffffffff1673ffffffffffffffffffffffffffffffffffffffff168152602001908152602001600020819055508373ffffffffffffffffffffffffffffffffffffffff168573ffffffffffffffffffffffffffffffffffffffff167fddf252ad1be2c89b69c2b068fc378daa952ba7f163c4a11628f55a4df523b3ef856040518082815260200191505060405180910390a360019150509392505050565b60065481565b6000600360009054906101000a900473ffffffffffffffffffffffffffffffffffffffff1673ffffffffffffffffffffffffffffffffffffffff163373ffffffffffffffffffffffffffffffffffffffff161415156109dc57600080fd5b600360149054906101000a900460ff161515156109f857600080fd5b610a0d826000546114cc90919063ffffffff16565b600081905550610a6582600160008673ffffffffffffffffffffffffffffffffffffffff1673ffffffffffffffffffffffffffffffffffffffff168152602001908152602001600020546114cc90919063ffffffff16565b600160008573ffffffffffffffffffffffffffffffffffffffff1673ffffffffffffffffffffffffffffffffffffffff168152602001908152602001600020819055508273ffffffffffffffffffffffffffffffffffffffff167f0f6798a560793a54c3bcfe86a93cde1e73087d944c0ea20544137d4121396885836040518082815260200191505060405180910390a28273ffffffffffffffffffffffffffffffffffffffff1660007fddf252ad1be2c89b69c2b068fc378daa952ba7f163c4a11628f55a4df523b3ef846040518082815260200191505060405180910390a36001905092915050565b600080600260003373ffffffffffffffffffffffffffffffffffffffff1673ffffffffffffffffffffffffffffffffffffffff16815260200190815260200160002060008573ffffffffffffffffffffffffffffffffffffffff1673ffffffffffffffffffffffffffffffffffffffff16815260200190815260200160002054905080831115610c61576000600260003373ffffffffffffffffffffffffffffffffffffffff1673ffffffffffffffffffffffffffffffffffffffff16815260200190815260200160002060008673ffffffffffffffffffffffffffffffffffffffff1673ffffffffffffffffffffffffffffffffffffffff16815260200190815260200160002081905550610cf5565b610c7483826114b390919063ffffffff16565b600260003373ffffffffffffffffffffffffffffffffffffffff1673ffffffffffffffffffffffffffffffffffffffff16815260200190815260200160002060008673ffffffffffffffffffffffffffffffffffffffff1673ffffffffffffffffffffffffffffffffffffffff168152602001908152602001600020819055505b8373ffffffffffffffffffffffffffffffffffffffff163373ffffffffffffffffffffffffffffffffffffffff167f8c5be1e5ebec7d5bd14f71427d1e84f3dd0314c0f7b2291e5b200ac8c7c3b925600260003373ffffffffffffffffffffffffffffffffffffffff1673ffffffffffffffffffffffffffffffffffffffff16815260200190815260200160002060008873ffffffffffffffffffffffffffffffffffffffff1673ffffffffffffffffffffffffffffffffffffffff168152602001908152602001600020546040518082815260200191505060405180910390a3600191505092915050565b6000600160008373ffffffffffffffffffffffffffffffffffffffff1673ffffffffffffffffffffffffffffffffffffffff168152602001908152602001600020549050919050565b6000600360009054906101000a900473ffffffffffffffffffffffffffffffffffffffff1673ffffffffffffffffffffffffffffffffffffffff163373ffffffffffffffffffffffffffffffffffffffff16141515610e8857600080fd5b6001600360146101000a81548160ff0219169083151502179055507fae5184fba832cb2b1f702aca6117b8d265eaf03ad33eb133f19dde0f5920fa0860405160405180910390a16001905090565b600360009054906101000a900473ffffffffffffffffffffffffffffffffffffffff1681565b60055481565b60008073ffffffffffffffffffffffffffffffffffffffff168373ffffffffffffffffffffffffffffffffffffffff1614151515610f3f57600080fd5b610f9182600160003373ffffffffffffffffffffffffffffffffffffffff1673ffffffffffffffffffffffffffffffffffffffff168152602001908152602001600020546114b390919063ffffffff16565b600160003373ffffffffffffffffffffffffffffffffffffffff1673ffffffffffffffffffffffffffffffffffffffff1681526020019081526020016000208190555061102682600160008673ffffffffffffffffffffffffffffffffffffffff1673ffffffffffffffffffffffffffffffffffffffff168152602001908152602001600020546114cc90919063ffffffff16565b600160008573ffffffffffffffffffffffffffffffffffffffff1673ffffffffffffffffffffffffffffffffffffffff168152602001908152602001600020819055508273ffffffffffffffffffffffffffffffffffffffff163373ffffffffffffffffffffffffffffffffffffffff167fddf252ad1be2c89b69c2b068fc378daa952ba7f163c4a11628f55a4df523b3ef846040518082815260200191505060405180910390a36001905092915050565b600061116982600260003373ffffffffffffffffffffffffffffffffffffffff1673ffffffffffffffffffffffffffffffffffffffff16815260200190815260200160002060008673ffffffffffffffffffffffffffffffffffffffff1673ffffffffffffffffffffffffffffffffffffffff168152602001908152602001600020546114cc90919063ffffffff16565b600260003373ffffffffffffffffffffffffffffffffffffffff1673ffffffffffffffffffffffffffffffffffffffff16815260200190815260200160002060008573ffffffffffffffffffffffffffffffffffffffff1673ffffffffffffffffffffffffffffffffffffffff168152602001908152602001600020819055508273ffffffffffffffffffffffffffffffffffffffff163373ffffffffffffffffffffffffffffffffffffffff167f8c5be1e5ebec7d5bd14f71427d1e84f3dd0314c0f7b2291e5b200ac8c7c3b925600260003373ffffffffffffffffffffffffffffffffffffffff1673ffffffffffffffffffffffffffffffffffffffff16815260200190815260200160002060008773ffffffffffffffffffffffffffffffffffffffff1673ffffffffffffffffffffffffffffffffffffffff168152602001908152602001600020546040518082815260200191505060405180910390a36001905092915050565b6000600260008473ffffffffffffffffffffffffffffffffffffffff1673ffffffffffffffffffffffffffffffffffffffff16815260200190815260200160002060008373ffffffffffffffffffffffffffffffffffffffff1673ffffffffffffffffffffffffffffffffffffffff16815260200190815260200160002054905092915050565b600360009054906101000a900473ffffffffffffffffffffffffffffffffffffffff1673ffffffffffffffffffffffffffffffffffffffff163373ffffffffffffffffffffffffffffffffffffffff161415156113b757600080fd5b600073ffffffffffffffffffffffffffffffffffffffff168173ffffffffffffffffffffffffffffffffffffffff16141515156113f357600080fd5b8073ffffffffffffffffffffffffffffffffffffffff16600360009054906101000a900473ffffffffffffffffffffffffffffffffffffffff1673ffffffffffffffffffffffffffffffffffffffff167f8be0079c531659141344cd1fd0a4f28419497f9722a3daafe3b4186f6b6457e060405160405180910390a380600360006101000a81548173ffffffffffffffffffffffffffffffffffffffff021916908373ffffffffffffffffffffffffffffffffffffffff16021790555050565b60008282111515156114c157fe5b818303905092915050565b60008082840190508381101515156114e057fe5b80915050929150505600a165627a7a72305820f809a59f7c7dd7ca1434452314af7a3eb532c3c846659ff31474211d9a24f3a40029a165627a7a72305820b27b35589ef63cef3d5e20a681327559fd509e271c9a825f18c202cab90eeea60029",
  "source": "pragma solidity ^0.4.11;\n\nimport './BaseCard.sol';\nimport 'zeppelin-solidity/contracts/math/SafeMath.sol';\n\n/**\n * @title CardLauncher\n */\ncontract CardLauncher {\n    using SafeMath for uint256;\n\n    // Cards array and counter\n    BaseCard[] public Cards;\n    uint256 public BaseCardCounter = 0;\n\n    // address where funds are collected\n    address public wallet;\n\n    // amount of raised money in wei\n    uint256 public weiRaised;\n\n    function CardLauncher(address _wallet) {\n\n        require(_wallet != 0x0);\n\n        wallet = _wallet;\n\n    }\n\n    function createCards(bytes32 _cardName, bytes32 _cardSymbol, uint _cardDecimals, uint _cardCount) public returns (uint) {\n\n        BaseCard customBaseCard = new BaseCard(_cardName, _cardSymbol, _cardDecimals, wallet);\n\n        BaseCardCounter++;\n\n        Cards.push(customBaseCard);\n\n        customBaseCard.mint(wallet, _cardCount);\n\n        return BaseCardCounter - 1;\n\n    }\n\n    function getCardsCount() public returns(uint) {\n        return Cards.length;\n    }\n\n    function getCards() public returns (BaseCard[]) {\n\n        return Cards;\n\n    }\n\n}",
  "sourcePath": "/Users/adamclark/repos/card-web/contracts/CardLauncher.sol",
  "compiler": {
    "name": "solc",
    "version": "0.4.18+commit.9cf6e910.Emscripten.clang"
  },
  "schemaVersion": "1.0.1",
  "updatedAt": "2017-11-17T17:21:50.501Z"
}